:020000040800F2
:1000000000000120A5060008F5060008F506000816
:10001000F5060008F5060008F506000800000000D7
:10002000000000000000000000000000F5060008CD
:10003000F506000800000000F5060008F5060008B7
:10004000F5060008F5060008F5060008F5060008A4
:10005000F5060008F5060008C90500082506000891
:10006000F5060008F5060008F5060008F506000884
:10007000F5060008F5060008F5060008F506000874
:10008000F5060008F5060008F50600080000000067
:10009000000000000000000000000000F50600085D
:1000A000F5060008F5060008F5060008F506000844
:1000B000F5060008F5060008F5060008F506000834
:1000C000F5060008F5060008F5060008F506000824
:1000D000F5060008F5060008F50600080000000017
:1000E000F5060008F5060008F50600080000000007
:1000F000000000000000000000000000F5060008FD
:1001000000000000F5060008F5060008F5060008E6
:1001100000000000000000000000000000000000DF
:10012000F5060008F5060008F5060008F5060008C3
:10013000F5060008000000000000000000000000BC
:10014000000000000000000000000000F5060008AC
:10015000F5060008F5060008F5060008F506000893
:10016000F5060008F5060008000000000000000089
:10017000000000000000000000000000000000007F
:1001800000000000F506000800000000000000006C
:04019000F506000868
:1001940010B5054C237833B9044B13B10448AFF3BD
:1001A40000800123237010BD6C00002000000000BB
:1001B4004007000808B5034B1BB103490348AFF3DC
:1001C400008008BD00000000700000204007000807
:1001D40080B483B000AF78600A4A7B6852F8233059
:1001E4001A6801217B6801FA03F3184605497B6804
:1001F40051F8233002431A6000BF0C37BD465DF846
:10020400047B70470800002080B400AF054B1B68D6
:10021400044A43F48043136000BFBD465DF8047B89
:10022400704700BF4438024080B483B000AF7860A8
:100234003960154B144A1B681360144B1B68012169
:100244007A6801FA02F21146104A0B431360104A0D
:100254003B6852F823301A6801217B6801FA03F3E2
:1002640018460B493B6851F8233002431A607B68F7
:10027400063301229A40074B1A6000BF0C37BD4673
:100284005DF8047B704700BF08380140003C014022
:100294000000002000E100E090B482B000AF78607C
:1002A400084611461A460346FB700B46BB701346BC
:1002B4007B7057497A6813469B001344DB000B4458
:1002C4001B681968FB785B00032202FA03F3DB4323
:1002D4001C464F487A6813469B001344DB000344D2
:1002E4001B6801EA04021A6049497A6813469B00B4
:1002F4001344DB000B441B681968BA78FB785B0075
:1003040002FA03F31C4642487A6813469B001344DE
:10031400DB0003441B6841EA04021A603C497A6822
:1003240013469B001344DB000B4404331B68196819
:10033400FB78012202FA03F3DB431C4634487A6853
:1003440013469B001344DB00034404331B6801EA97
:1003540004021A602E497A6813469B001344DB009A
:100364000B4404331B6819687B7803F00102FB78A3
:1003740002FA03F31C4626487A6813469B0013448A
:10038400DB00034404331B6841EA04021A60204979
:100394007A6813469B001344DB000B440C331B6840
:1003A4001968FB785B00032202FA03F3DB431C4663
:1003B40017487A6813469B001344DB0003440C334C
:1003C4001B6801EA04021A6011497A6813469B000B
:1003D4001344DB000B440C331B6819687B785B10F7
:1003E40003F00302FB785B0002FA03F31C4608489F
:1003F4007A6813469B001344DB0003440C331B68E8
:1004040041EA04021A6000BF0837BD4690BC704739
:100414001000002090B484B000AF78600B46FB70ED
:100424001346BB702D497A6813469B001344DB00C6
:100434000B441B681B68FA785200032101FA02F28C
:100444001A40FB785B0022FA03F3012B3DD1BB7801
:10045400002B1BD021497A6813469B001344DB0010
:100464000B4414331B681968FB78012202FA03F366
:100474001C461A487A6813469B001344DB00034465
:1004840014331B6841EA04021A601BE013497A68BA
:1004940013469B001344DB000B4414331B68196898
:1004A400FB78012202FA03F3DB431C460B487A680B
:1004B40013469B001344DB00034414331B6801EA16
:1004C40004021A600023FB7301E00123FB73FB7B2E
:1004D40018461037BD4690BC704700BF100000207E
:1004E40080B584B000AF0020FFF772FE0120FFF753
:1004F4006FFEFFF789FE0223002200210020FFF790
:10050400CBFE0223002201210020FFF7C5FE0023B9
:10051400FB6009E0FB68D9B2002301220120FFF748
:10052400BBFEFB680133FB60FB68062BF2DD002198
:100534000020FFF779FE00210120FFF775FE00235C
:10054400BB6018E0BB68D9B21C4B1B781A461C4B25
:100554009B5C18460122BB6802FA03F300EA03021B
:10056400BB6842FA03F3DBB21A460120FFF752FFDD
:10057400BB680133BB60BB68062BE3DD00237B60F3
:1005840018E07B68D9B20D4B1B781A460C4B9B5C68
:10059400184601227B6802FA03F300EA03027B682F
:1005A40042FA03F3DBB21A460120FFF733FF7B68FC
:1005B40001337B607B68062BE3DDDFE788000020E6
:1005C4006000002080B400AF124B1B68114A23F076
:1005D40002031360104B1B680F4A43F001031360BE
:1005E4000E4B1B78092B03D10C4B09221A7005E022
:1005F4000A4B1B780133DAB2084B1A70054B1B689F
:10060400044A43F00203136000BFBD465DF8047B57
:10061400704700BF003C0140143C014088000020AA
:1006240080B400AF124B1B68114A23F0010313601E
:10063400104B1B680F4A43F0020313600E4B1B78E8
:10064400002B03D10C4B00221A7005E00A4B1B78D7
:10065400013BDAB2084B1A70054B1B68044A43F09D
:100664000103136000BFBD465DF8047B704700BF03
:10067400003C0140143C01408800002080B400AFDD
:10068400064BD3F88830054A43F47003C2F8883027
:1006940000BFBD465DF8047B704700BF00ED00E07D
:1006A400DFF834D00D480E490E4A002302E0D45836
:1006B400C4500433C4188C42F9D30B4A0B4C0023A6
:1006C40001E013600432A242FBD3FFF7D7FF00F02E
:1006D40011F8FFF705FF704700000120000000201B
:1006E4006C000020600700086C0000208C000020D3
:1006F400FEE7000070B50D4D0D4C641BA4100026E0
:10070400A64209D10B4D0C4C00F018F8641BA41040
:100714000026A64205D170BD55F8043B9847013622
:10072400EEE755F8043B98470136F2E7580700080E
:1007340058070008580700085C070008F8B500BF10
:10074400F8BC08BC9E467047F8B500BFF8BC08BCAE
:040754009E46704706
:04075800B9010008DB
:04075C0095010008FB
:100760000C3C0140083C0140303802403038024027
:100770000000024004000240080002400C00024059
:100780001000024014000240180002401C00024009
:100790002000024024000240000402400404024001
:1007A000080402400C0402401004024014040240F9
:1007B000180402401C0402402004024024040240A9
:0C07C0003F065B4F666D7D077F6F0000F9
:04000005080006A544
:00000001FF
