:020000040800F2
:100000000000012025030008AD020008B30200082B
:10001000B9020008BF020008C50200080000000085
:10002000000000000000000000000000CB020008FB
:10003000D902000800000000E7020008F5020008ED
:1000400075030008750300087503000875030008B0
:1000500075030008750300087503000875030008A0
:100060007503000875030008750300087503000890
:100070007503000875030008750300087503000880
:1000800075030008750300087503000800000000F0
:1000900000000000000000000000000075030008E0
:1000A0007503000875030008750300087503000850
:1000B0007503000875030008750300087503000840
:1000C0007503000875030008750300087503000830
:1000D00075030008750300087503000800000000A0
:1000E0007503000875030008750300080000000090
:1000F0000000000000000000000000007503000880
:10010000000000007503000875030008750300086F
:1001100000000000000000000000000000000000DF
:1001200075030008750300087503000875030008CF
:10013000750300080000000000000000000000003F
:10014000000000000000000000000000750300082F
:10015000750300087503000875030008750300089F
:10016000750300087503000800000000000000008F
:10017000000000000000000000000000000000007F
:1001800000000000750300080000000000000000EF
:0401900075030008EB
:1001940010B5054C237833B9044B13B10448AFF3BD
:1001A40000800123237010BD040000200000000023
:1001B400E803000808B5034B1BB103490348AFF338
:1001C400008008BD0000000008000020E8030008CB
:1001D40080B483B000AF324B1B6B314A43F002034F
:1001E4001363304B1B682F4A23F0C00313602D4B5D
:1001F4001B682C4A23F47C4313602A4B1B68294A4E
:1002040043F4A8431360274B5B68264A23F0E003BA
:100214005360244BDB68234A23F0C003D360214B93
:10022400DB68204A43F04003D36000237B600BE08B
:100234001C4B1B69DB0803F001033B603B68012B8B
:1002440008D07B6801337B607B684CF24F32934269
:10025400EEDD00E000BF134B1B69DB0803F0010374
:10026400002B19D10F4B5B695B0903F00703062BC5
:1002740005D80C4B5B690B4A203353610CE0094BE6
:100284005B69084A23F0E003536105E0054B1B69F1
:10029400DB0803F001033B603B68002BF6D0C4E7A6
:1002A400003802400004024080B400AFFEE780B48E
:1002B40000AFFEE780B400AFFEE780B400AFFEE716
:1002C40080B400AFFEE780B400AF00BFBD465DF868
:1002D400047B704780B400AF00BFBD465DF8047B6B
:1002E400704780B400AF00BFBD465DF8047B704723
:1002F40080B500AF00F03EF800BF80BD80B400AF11
:10030400064BD3F88830054A43F47003C2F88830AA
:1003140000BFBD465DF8047B704700BF00ED00E000
:10032400DFF834D00D480E490E4A002302E0D458B9
:10033400C4500433C4188C42F9D30B4A0B4C002329
:1003440001E013600432A242FBD3FFF7D7FF00F0B1
:1003540025F8FFF73DFF7047000001200000002052
:1003640004000020080400080400002024000020E9
:10037400FEE7000080B400AF064B1B781A46064B1C
:100384001B681344044A136000BFBD465DF8047B38
:10039400704700BF000000202000002070B50D4D04
:1003A4000D4C641BA4100026A64209D10B4D0C4C25
:1003B40000F018F8641BA4100026A64205D170BDF5
:1003C40055F8043B98470136EEE755F8043B984747
:1003D4000136F2E7000400080004000800040008E5
:1003E40004040008F8B500BFF8BC08BC9E4670477A
:0C03F400F8B500BFF8BC08BC9E4670477E
:04040000B901000836
:040404009501000856
:0404080001000000EF
:0400000508000325C7
:00000001FF
