:020000040800F2
:100000000000012075090008FD0800080309000828
:10001000090900080F090008150900080000000080
:100020000000000000000000000000001B090008A4
:1000300029090008000000003709000845090008E8
:10004000C5090008C5090008C5090008C509000858
:10005000C5090008C5090008C5090008C509000848
:10006000C5090008C5090008C5090008C509000838
:10007000C5090008C5090008C5090008C509000828
:10008000C5090008C5090008C509000800000000EE
:10009000000000000000000000000000C50900088A
:1000A000C5090008C5090008C5090008C5090008F8
:1000B000C5090008C5090008C5090008C5090008E8
:1000C000C5090008C5090008C5090008C5090008D8
:1000D000C5090008C5090008C5090008000000009E
:1000E000C5090008C5090008C5090008000000008E
:1000F000000000000000000000000000C50900082A
:1001000000000000C5090008C5090008C50900086D
:1001100000000000000000000000000000000000DF
:1001200059070008C5090008C5090008C5090008E5
:10013000C5090008000000000000000000000000E9
:10014000000000000000000000000000C5090008D9
:10015000C5090008C5090008C5090008C509000847
:10016000C5090008C50900080000000000000000E3
:10017000000000000000000000000000000000007F
:1001800000000000C5090008000000000000000099
:04019000C509000895
:1001940010B5054C237833B9044B13B10448AFF3BD
:1001A40000800123237010BD7400002000000000B3
:1001B400380A000808B5034B1BB103490348AFF3E1
:1001C400008008BD0000000078000020380A000804
:1001D40080B483B000AF78600A4A7B6852F8233059
:1001E4001A6801217B6801FA03F3184605497B6804
:1001F40051F8233002431A6000BF0C37BD465DF846
:10020400047B70471400002080B400AF054B1B68CA
:10021400044A43F40033136000BFBD465DF8047B19
:10022400704700BF4038024080B400AF164B1B68D3
:10023400154A43F008031360134B1B68124A43F436
:1002440000531360104B1B680F4A23F48053136050
:100254000D4B1B680C4A23F4004313600B4B1B68C3
:100264000A4A23F440531360094B40F283621A6034
:10027400084B1B68074A43F4E063136000BFBD46A4
:100284005DF8047B704700BF0C44004010440040FC
:10029400084400402000024080B485B000AF78607C
:1002A4000023FB600FE07A68FB6813441A780C4B58
:1002B4001A6000BF0B4B1B6803F04003002BF9D0FE
:1002C400FB680133FB607A68FB6813441B78002BDE
:1002D400E9D100BF00BF1437BD465DF8047B704709
:1002E400044400400044004080B483B000AF786010
:1002F4000B46FB70FB78012202FA03F1054A7B6886
:1003040052F823300A461A6000BF0C37BD465DF828
:10031400047B70470000002090B482B000AF786086
:10032400084611461A460346FB700B46BB7013463B
:100334007B7057497A6813469B001344DB000B44D7
:100344001B681968FB785B00032202FA03F3DB43A2
:100354001C464F487A6813469B001344DB00034451
:100364001B6801EA04021A6049497A6813469B0033
:100374001344DB000B441B681968BA78FB785B00F4
:1003840002FA03F31C4642487A6813469B0013445E
:10039400DB0003441B6841EA04021A603C497A68A2
:1003A40013469B001344DB000B4404331B68196899
:1003B400FB78012202FA03F3DB431C4634487A68D3
:1003C40013469B001344DB00034404331B6801EA17
:1003D40004021A602E497A6813469B001344DB001A
:1003E4000B4404331B6819687B7803F00102FB7823
:1003F40002FA03F31C4626487A6813469B0013440A
:10040400DB00034404331B6841EA04021A602049F8
:100414007A6813469B001344DB000B440C331B68BF
:100424001968FB785B00032202FA03F3DB431C46E2
:1004340017487A6813469B001344DB0003440C33CB
:100444001B6801EA04021A6011497A6813469B008A
:100454001344DB000B440C331B6819687B785B1076
:1004640003F00302FB785B0002FA03F31C4608481E
:100474007A6813469B001344DB0003440C331B6867
:1004840041EA04021A6000BF0837BD4690BC7047B9
:100494001C00002090B484B000AF78600B46FB7061
:1004A4001346BB702D497A6813469B001344DB0046
:1004B4000B441B681B68FA785200032101FA02F20C
:1004C4001A40FB785B0022FA03F3012B3DD1BB7881
:1004D400002B1BD021497A6813469B001344DB0090
:1004E4000B4414331B681968FB78012202FA03F3E6
:1004F4001C461A487A6813469B001344DB000344E5
:1005040014331B6841EA04021A601BE013497A6839
:1005140013469B001344DB000B4414331B68196817
:10052400FB78012202FA03F3DB431C460B487A688A
:1005340013469B001344DB00034414331B6801EA95
:1005440004021A600023FB7301E00123FB73FB7BAD
:1005540018461037BD4690BC704700BF1C000020F1
:1005640080B483B000AF7860084B1B687A6814329B
:10057400012101FA02F21146044A0B43136000BF41
:100584000C37BD465DF8047B704700BF303802402D
:1005940080B487B000AFF860B9607A603B604E4BBE
:1005A4001B6803F001037B617B69012B08D14A4B73
:1005B4001B68494A23F0010313607B69012BFCD0BB
:1005C400454B1B68444A43F010031360424B1B68BD
:1005D400414A43F0040313603F4B1B683E4A23F037
:1005E400200313603C4B1B683A68120411463A4AD4
:1005F4000B431360384B1B68374A43F40073136092
:10060400354B1B68344A43F480631360334AFB68F8
:100614001360334ABB681360324A7B6A13602E4B03
:100624001B687A68520611462B4A0B4313602A4B07
:100634001B683A6A92011146274A0B431360264B02
:100644001B68BA6AD2021146234A0B431360224B39
:100654001B68BA6A520311461F4A0B431360FB6AB4
:10066400012B0CD11C4B1B681B4A43F40003136081
:10067400194B1B68184A43F4001313600BE0164B24
:100684001B68154A23F400031360134B1B68124ABA
:1006940023F4001313603B6A022B02D03B6B012B43
:1006A4000CD1114B1B68104A43F0040313600E4B2A
:1006B4001B680D4A43F00303136006E00A4B1B68F2
:1006C400094A23F00403136000BF00BF1C37BD4672
:1006D4005DF8047B704700BF106402401864024058
:1006E4001C640240146402402464024080B400AFDD
:1006F400054B1B68044A43F00103136000BFBD4669
:100704005DF8047B704700BF1064024080B485B07C
:1007140000AF0023FB600E4B1B685B0903F0010371
:10072400BB600B4B1B68DB0803F001037B60FA68BA
:10073400BB681343FB607B685B00FA681343FB6090
:10074400FB6818461437BD465DF8047B704700BF4C
:100754000064024080B500AF00F090F8064B1B68BF
:10076400054A43F020031360034B1B68024A43F01D
:100774000803136000BF80BD0864024080B588B0E0
:1007840006AF0023FB710CE0FB790133642202FB0A
:1007940003F2FB791146234A42F82310FB79013313
:1007A400FB71FB79632BEFD90020FFF711FD0023C8
:1007B400012200210020FFF7AFFD002301220521C3
:1007C4000020FFF7A9FD18210120FFF78DFD02206D
:1007D400FFF7C6FE0123049301230393022302932C
:1007E4006423019302230093032300220E490D483E
:1007F400FFF7CEFEFFF77AFFFFF706FD0023022284
:1008040002210020FFF788FD00230222032100209B
:10081400FFF782FDFFF708FD044B1B681846FFF73E
:100824003BFDFEE7240200209400002090000020FD
:1008340080B485B000AF7860396011E0FB689B003C
:100844007A6813441A68FB689B0039680B441B6878
:100854009A4202D0084B00221A60FB680133FB6005
:10086400FB68632BEADD044B1B6818461437BD464E
:100874005DF8047B704700BF6C00002080B584B035
:1008840000AF18491848FFF7D3FF0346FB60FB6825
:10089400012B03D1154B164A1A6002E0134B154A7B
:1008A4001A60FFF733FFB860BB6803F001037B6095
:1008B400BB685B0803F001033B607B68002B04D03A
:1008C400012200210020FFF7E5FD3B68002B04D046
:1008D400012205210020FFF7DDFD00BF1037BD46D2
:1008E40080BD00BF9400002024020020900000205E
:1008F400500A0008640A000880B400AFFEE780B420
:1009040000AFFEE780B400AFFEE780B400AFFEE7BF
:1009140080B400AFFEE780B400AF00BFBD465DF811
:10092400047B704780B400AF00BFBD465DF8047B14
:10093400704780B400AF00BFBD465DF8047B7047CC
:1009440080B500AF00F03EF800BF80BD80B400AFBA
:10095400064BD3F88830054A43F47003C2F8883054
:1009640000BFBD465DF8047B704700BF00ED00E0AA
:10097400DFF834D00D480E490E4A002302E0D45863
:10098400C4500433C4188C42F9D30B4A0B4C0023D3
:1009940001E013600432A242FBD3FFF7D7FF00F05B
:1009A40025F8FFF7EBFE704700000120000000204F
:1009B400740000207C0A000874000020B8030020A2
:1009C400FEE7000080B400AF064B1B781A46064BC6
:1009D4001B681344044A136000BFBD465DF8047BE2
:1009E400704700BF70000020B403002070B50D4DA7
:1009F4000D4C641BA4100026A64209D10B4D0C4CCF
:100A040000F018F8641BA4100026A64205D170BD9E
:100A140055F8043B98470136EEE755F8043B9847F0
:100A24000136F2E7740A0008740A0008740A000820
:100A3400780A0008F8B500BFF8BC08BC9E467047A9
:0C0A4400F8B500BFF8BC08BC9E46704727
:100A5000436F70696564205375636365737366756E
:100A60006C6C7900436F7079696E67206661696CA0
:040A700065640000B9
:040A7400B9010008BC
:040A780095010008DC
:100A7C0000E100E004E100E008E100E00CE100E04E
:100A8C0010E100E0303802403038024000000240F3
:100A9C0004000240080002400C000240100002401A
:100AAC0014000240180002401C00024020000240CA
:100ABC0024000240000402400404024008040240E6
:100ACC000C040240100402401404024018040240BA
:100ADC001C040240200402402404024001000000D7
:040AEC000100000005
:040000050800097571
:00000001FF
