:020000040800F2
:100000000000012019030008A1020008A70200084F
:10001000AD020008B3020008B902000800000000A9
:10002000000000000000000000000000BF02000807
:10003000CD02000800000000DB020008E902000811
:1000400069030008690300086903000869030008E0
:1000500069030008690300086903000869030008D0
:1000600069030008690300086903000869030008C0
:1000700069030008690300086903000869030008B0
:100080006903000869030008690300080000000014
:1000900000000000000000000000000069030008EC
:1000A0006903000869030008690300086903000880
:1000B0006903000869030008690300086903000870
:1000C0006903000869030008690300086903000860
:1000D00069030008690300086903000800000000C4
:1000E00069030008690300086903000800000000B4
:1000F000000000000000000000000000690300088C
:100100000000000069030008690300086903000893
:1001100000000000000000000000000000000000DF
:1001200069030008690300086903000869030008FF
:10013000690300080000000000000000000000004B
:10014000000000000000000000000000690300083B
:1001500069030008690300086903000869030008CF
:1001600069030008690300080000000000000000A7
:10017000000000000000000000000000000000007F
:1001800000000000690300080000000000000000FB
:0401900069030008F7
:1001940010B5054C237833B9044B13B10448AFF3BD
:1001A40000800123237010BD040000200000000023
:1001B400CC06000808B5034B1BB103490348AFF351
:1001C400008008BD0000000008000020CC060008E4
:1001D40080B584B000AF002300220321422000F048
:1001E400D7F8002301220521422000F0D1F8002392
:1001F40001220621422000F0CBF80023012207212E
:10020400422000F0C5F8244BDB68234A43F0400346
:10021400D3600023BB600023FB600BE0032142207A
:1002240000F002FA03467B607B68012B08D0FB6870
:100234000133FB60FB684CF24F329342EEDD00E089
:1002440000BF7B68002B23D1BB680133BB60BB6854
:1002540003F001031A460521422000F07BF9BB6834
:100264005B1003F001031A460621422000F072F9E4
:10027400BB689B1003F001031A460721422000F0DB
:1002840069F905E00321422000F0CEF903467B60C2
:100294007B68002BF6D0BEE70004024080B400AFB8
:1002A400FEE780B400AFFEE780B400AFFEE780B4A1
:1002B40000AFFEE780B400AFFEE780B400AF00BF3C
:1002C400BD465DF8047B704780B400AF00BFBD46F7
:1002D4005DF8047B704780B400AF00BFBD465DF895
:1002E400047B704780B500AF00F03EF800BF80BDCE
:1002F40080B400AF064BD3F88830054A43F470034A
:10030400C2F8883000BFBD465DF8047B704700BF6B
:1003140000ED00E0DFF834D00D480E490E4A00230A
:1003240002E0D458C4500433C4188C42F9D30B4AA5
:100334000B4C002301E013600432A242FBD3FFF70D
:10034400D7FF00F09DF9FFF743FF7047000001203D
:100354000000002004000020EC0600080400002037
:1003640024000020FEE7000080B400AF064B1B7899
:100374001A46064B1B681344044A136000BFBD466B
:100384005DF8047B704700BF0000002020000020BF
:1003940080B485B000AFB9607A603B600346FB73FC
:1003A400FB7B412B02D0422B64D0C7E0664B1B6B16
:1003B400654A43F0010313637B68032B3BD801A216
:1003C40052F823F0D9030008F30300080B040008D3
:1003D400230400085D4B1B68BA685200032101FA2C
:1003E40002F2D2431146594A0B40136023E0574BA3
:1003F4001B68BA685200012101FA02F21146534AFD
:100404000B43136017E0514B1B68BA68520002217A
:1004140001FA02F211464D4A0B4313600BE04B4BB9
:100424001B68BA685200032101FA02F21146474AD6
:100434000B43136000BF3B68002B03D03B68012BC8
:100444000CD07BE0414B5B680121BA6801FA02F2EF
:10045400D24311463D4A0B4053600AE03B4B5B6874
:100464000121BA6801FA02F21146384A0B4353607B
:1004740000BF63E0344B1B6B334A43F00203136346
:100484007B68032B3BD801A252F823F0A104000897
:10049400BB040008D3040008EB0400082C4B1B68C1
:1004A400BA685200032101FA02F2D2431146284AE3
:1004B4000B40136023E0264B1B68BA6852000121ED
:1004C40001FA02F21146224A0B43136017E0204B53
:1004D4001B68BA685200022101FA02F211461C4A52
:1004E4000B4313600BE01A4B1B68BA6852000321DC
:1004F40001FA02F21146164A0B43136000BF3B682F
:10050400002B03D03B68012B0CD016E0104B5B682A
:100514000121BA6801FA02F2D24311460C4A0B4097
:1005240053600AE00A4B5B680121BA6801FA02F2DF
:100534001146074A0B43536000BF00BF00BF143786
:10054400BD465DF8047B704700380240000002405D
:100554000004024080B487B000AF0346B9607A60FB
:10056400FB73FB7B412B02D0422B29D051E02C4B57
:100574001A68BB685B0022FA03F303F00303012B40
:100584001BD17B68002B0AD0254B5B690121BA681B
:1005940001FA02F21146224A0B4353610AE0204B4E
:1005A4005B690121BA6801FA02F2D24311461C4A7E
:1005B4000B4053610023FB752BE00123FB7528E0FE
:1005C400184B1A68BB685B0022FA03F303F00303B9
:1005D400012B1BD17B68002B0AD0124B5B690121D4
:1005E400BA6801FA02F211460E4A0B4353610AE05B
:1005F4000C4B5B690121BA6801FA02F2D24311463D
:10060400084A0B4053610023FB7501E00123FB758D
:1006140000BFFB7D18461C37BD465DF8047B704760
:10062400000002400004024080B485B000AF0346DD
:100634003960FB71FB79412B02D0422B0AD013E0C5
:100644000D4B1A693B6822FA03F3DBB203F0010392
:10065400FB7309E0094B1A693B6822FA03F3DBB226
:1006640003F00103FB7300BFFB7B18461437BD4640
:100674005DF8047B704700BF0000024000040240A4
:1006840070B50D4D0D4C641BA4100026A64209D173
:100694000B4D0C4C00F018F8641BA4100026A64265
:1006A40005D170BD55F8043B98470136EEE755F87F
:1006B400043B98470136F2E7E4060008E406000824
:1006C400E4060008E8060008F8B500BFF8BC08BC5A
:1006D4009E467047F8B500BFF8BC08BC9E467047FC
:0406E400B901000850
:0406E8009501000870
:0406EC000100000009
:0400000508000319D3
:00000001FF
